:020000040800F2
:10000000C8590020ED010008433A000809360008ED
:10001000413A00082D100008BB56000800000000FF
:10002000000000000000000000000000793A000815
:100030008711000800000000773A0008194E0008F8
:10004000070200080702000807020008070200086C
:10005000070200080702000807020008070200085C
:10006000070200080702000807020008C110000884
:10007000CD100008D9100008070200080702000888
:10008000070200080000000007020008070200083D
:10009000070200080702000807020008070200081C
:1000A000070200080702000807020008070200080C
:1000B00007020008070200080702000807020008FC
:1000C00007020008070200080702000807020008EC
:1000D00007020008070200080702000807020008DC
:1000E00007020008070200080702000807020008CC
:1000F00007020008070200080702000800000000CD
:1001000000000000070200080000000007020008CD
:1001100007020008000000000702000807020008AC
:10012000070200080702000807020008070200088B
:10013000070200080000000000000000070200089D
:10014000070200080702000800000000000000008D
:10015000000000000000000000000000000000009F
:10016000000000000000000000000000070200087E
:10017000070200080000000000000000000000006E
:10018000000000000702000800000000000000005E
:10019000000000000000000000000000000000005F
:1001A000000000000000000007020008070200082D
:1001B000070200080702000807020008000000000C
:1001C000000000000702000800000000000000001E
:1001D0000702000807020008DFF80CD000F0DAFB85
:1001E0000048004759750008C85900200648804754
:1001F00006480047FEE7FEE7FEE7FEE7FEE7FEE70C
:10020000FEE7FEE7FEE7FEE7814E0008D9010008A1
:100210002DE9F05F0546002092469B46884606463B
:10022000814640241BE0284641464746224600F0CE
:100230006DFA53465A46C01A914110D311461846DA
:10024000224600F016F82D1A67EB01084F462246A9
:100250000120002100F00DF817EB00094E41201E8F
:10026000A4F10104DFDC484631462A464346BDE896
:10027000F09F202A04DB203A00FA02F100207047A8
:100280009140C2F1200320FA03F3194390407047D4
:10029000202A06DBCB17203A41FA02F043EAE0734A
:1002A00006E041FA02F3D040C2F120029140084337
:1002B0001946704740EA01039B0703D009E008C9CB
:1002C000121F08C0042AFAD203E011F8013B00F81B
:1002D000013B521EF9D27047D2B201E000F8012B67
:1002E000491EFBD270470022F6E710B513460A46B6
:1002F00004461946FFF7F0FF204610BD10B504462E
:1003000004E00B7800F8013B03B1491C521EF8D2FF
:10031000204610BD421C10F8011B0029FBD1801A99
:10032000704730B505460020034600E05B1C934251
:1003300005D2EC5CC85C201A01D1002CF6D130BD8E
:100340002DE9FE4F804681EA0300C00F0C46009065
:1003500021F0004123F00045B8EB0200A94105D28D
:100360004046214690461C460B46024623F000407C
:10037000104347D0270DC7F30A00C3F30A51029078
:10038000401A019040286BDAC3F3130040F4801B3D
:100390000098924620B10023D2EB030A63EB0B0BCB
:1003A00001985946C0F140025046FFF762FF0646E9
:1003B0000D4650465946019AFFF76AFF10EB0800B8
:1003C0006141002487EA115284EAE7731A4340D05E
:1003D000009A62B3019A012A4FEA075215DC001B0A
:1003E00061EB02014FF0004202EA0752CDE9004200
:1003F000001C41F5801132462B4600F049FA03B04B
:10040000BDE8F08F40462146F9E7001B61EB020191
:10041000001C41F5801300185B412018A2F500175D
:1004200047EB030140EAD570B6196D4111E06D0844
:100430004FEA360645EAC0754FEA0752001B61EBEA
:100440000201001C41F5801149084FEA30000019F3
:10045000514132462B4603B0BDE8F04F00F009BAD7
:100460000098012240000023D0EB020263EBE0730E
:10047000009821464FEAE074B8EB000061EB0401FC
:10048000E9E783F000435BE781F0004158E72DE99D
:10049000FE4F81EA030404F0004421F0004100947F
:1004A0004FF0000B23F0004350EA01045ED052EA03
:1004B00003045BD0C3F30A54C1F30A552C44A4F2DD
:1004C000F3340194A0FB0254C1F3130141F48011F1
:1004D000C3F3130343F4801301FB024400FB034EF8
:1004E000840A970A44EA815447EA8357A4FB0768C1
:1004F00002958D0A05FB07854FEA932C04FB0C54EB
:100500002705029D4FEA065847EA1637B5EB08055E
:100510006EEB070C870E920E47EA811742EA8312B0
:10052000A7FB0201B6EB0B0164EB00042B0D43EAC1
:100530000C335E1844EB1C50DA465146E7FB0201CF
:10054000C5F313044FEA0B3343EA14534FEA043262
:10055000019C43EA0603A4F10C040294009CCDE93B
:1005600000B400F095F903B0BDE8F08F002001461B
:10057000F9E72DE9F04D81EA030404F0004B21F086
:10058000004514464FF0000A23F0004150EA0502EE
:1005900020D054EA01021DD0C5F30A570246C5F324
:1005A0001303C1F31300C1F30A5640F4801543F45A
:1005B0008013A7EB0608101BD64608F2FD3873EB34
:1005C000050002D308F1010801E092185B41B8F17F
:1005D000000F03DA00200146BDE8F08D00204FF443
:1005E0008011064684460EE0171B73EB050705D302
:1005F000121B63EB050306434CEA010C49084FEA62
:10060000300092185B4150EA0107EDD152EA030035
:1006100012D082EA040083EA0501084305D0101BCA
:10062000AB4106D20122002306E000224FF0004336
:1006300002E06FF0010253101AEB06004CEB085178
:1006400010EB0A0041EB0B01BDE8F04D00F011B9D1
:1006500000F0004230F000400AD0C10D01F5607199
:10066000C0F3160042EA0151C20840071143704727
:10067000002001467047000030B5041E71F10004EF
:1006800004DB4FF00044404264EB0101141E73F19F
:10069000000405DB1C464FF00043524263EB0403A9
:1006A000994208BF904230BD01F0004330B421F0C0
:1006B000004150EA010206D00A0DA2F56072C1F3B2
:1006C0001301002A02DC30BC00207047440F44EACA
:1006D000C104C100E01830BC00EBC25000F074B897
:1006E00030B50B46014600202022012409E021FA02
:1006F00002F59D4205D303FA02F5491B04FA02F5FF
:100700002844151EA2F10102F1DC30BD202A04DBD1
:10071000203A21FA02F00021704721FA02F3D0407A
:10072000C2F1200291400843194670470FB40023DC
:1007300000B589B00CA900910B996FF00042CB6015
:100740001E4B06931E4B07930423CDE901321D4A2D
:10075000089202466B46002000F0C8F909B05DF827
:1007600014FB70B586B006464FF0FF300091CDE91E
:100770000101002015460C4604903246694604A843
:10078000FFF7D4FF02460498211825B108B10846A6
:1007900000E020462860049800280DD0002A02DDE1
:1007A0000098884208D0081B0094CDE90104324625
:1007B000694604A8FFF7BAFF06B070BD250D000812
:1007C000430D0008B90900080029A8BF7047401C64
:1007D000490008BF20F00100704710B4B0FA80FC57
:1007E00000FA0CF050EA010404BF10BC704749B194
:1007F000CCF1200421FA04F411FA0CF118BF012104
:1008000021430843A3EB0C01CB1D4FEA00614FEAE3
:10081000102042BF002010BC704700EBC3501044B2
:100820000029A4BF10BC7047401C490008BF20F03D
:10083000010010BC704710B541000CD0C0F3C75187
:10084000962908DC7E2909DC06DB410204D000F091
:10085000004040F07E5010BD002010BDC1F1960454
:10086000C4F1200100FA01F1E040FFF7ADFFA04024
:1008700010BD10B5141E73F1000408DA401C41F1DC
:10088000000192185B411A4301D120F0010010BD14
:100890002DE9F04D92469B4611B1B1FA81F202E08A
:1008A000B0FA80F220329046FFF7E3FC04460F4690
:1008B00040EA0A0041EA0B0153465A46084313D066
:1008C000114653EA010019D0C8F140025046FFF723
:1008D0001DFF05460E46504659464246FFF7C9FCE5
:1008E000084305D0012004E020463946BDE8F08DDC
:1008F0000020054346EAE0762C4337430A98630517
:10090000E40AA0EB08000022FD0A44EA47540A303A
:1009100002D500200146E9E7010510196941DDE92A
:10092000084500196941BDE8F04DA2E7C1F30A523C
:10093000C1F3130140F2FF3341F480119A4202DA0D
:1009400000200146704740F233439A42A2F23342FC
:1009500002DC5242FFF7DABEFFF78BBC002801DB56
:10096000C0F10040002901DBC1F10041814202D207
:100970004FF0004004E04FF0005001D14FF0C04074
:100980004FEA2062EFF3008162F31F6181F3008878
:1009900070470000064C074D06E0E06840F0010398
:1009A00094E8070098471034AC42F6D3FFF718FCE0
:1009B00090860008B0860008C0B24FF4F05100F0F5
:1009C000D1B900002DE9FF4F087883B09946FF2880
:1009D00005D0491C2D2804D00024002008E0002068
:1009E0000BE00124F9E700EB800003EB4000491C19
:1009F0000B78FF2BF7D104B1404200230293147807
:100A000019461D462D2C01D02B2C04D1521C2D2C07
:100A100013D000240294AA461478FF2C0FD00A2584
:100A2000A3FB057801FB05814FF0000C03FB0C11C3
:100A3000521CE3194AEB0101EEE70124EAE7814485
:100A400053EA010002D019F5C87F06DA03980021A5
:100A5000C0E9001107B0BDE8F08F0025AE4E2F466B
:100A6000DFF8B882184600F091F9CDE90001B9F13C
:100A7000000002DAC9F1000400E004460023A74A9E
:100A80001AEB030B42EB045A12E0E00707D02A46A8
:100A9000334638464146FFF7FAFC074688462A4661
:100AA000334610461946FFF7F2FC05460E46641021
:100AB000002CEAD1DDE90001B9F1000F5A46534696
:100AC00006DAFFF756FD3A464346FFF752FD05E0CA
:100AD000FFF7DDFC3A464346FFF7D9FC029A0AB11C
:100AE00081F00041039AC2E90001B3E72DE9FF4F0D
:100AF0001F468DB0D7E901464FF0FF382E204546FE
:100B00004FF000090B90B9696D1C0E988847396A3F
:100B1000824688470028F6D1BAF1FF3F0AD024F474
:100B2000D064002E11DDBAF12B0F08D0BAF12D0FD1
:100B30000BD102E0404611B08DE744F48064B969FE
:100B40006D1C0E9888478246761E6946600501D561
:100B50002D2000E02B208DF8000001F1010B0DF19C
:100B6000200809E0B9696D1C0E98884782460F98E5
:100B700044F40074761E0560002E02DDBAF1300FD9
:100B8000F0D00B998A453ED144F0800406E00F99DD
:100B9000681CA9F1010944F400740860B9696D1C6E
:100BA000761E0E98884782463028F0D02BE00B99AD
:100BB0008A4505D1200603D444F08004761E18E04F
:100BC000504605F037FB08B30DF11301761E44F4CF
:100BD00000748B4508D2AAF130000BF8010B2006F7
:100BE00007D5A9F1010003E0200602D409F10100B4
:100BF0008146A00502D50F99681C0860B9696D1C73
:100C00000E9888478246002ED1DC53E0002E51DD3D
:100C1000BAF1650F02D0BAF1450F4BD1A00549D505
:100C2000B9696D1C24F44074761E0E98884782467C
:100C3000002E0CDD2B2804D0BAF12D0F07D144F47F
:100C40008074B9696D1C0E9888478246761EE0054F
:100C500001D52D2100E02B2108F8011BCDF82C80B7
:100C600021E00DF12901761E44F4007488450CD270
:100C7000AAF1300010F0FF0088F8000002D10B99B3
:100C8000884509D908F1010806E0E00501D52448A6
:100C900001E042F20F708146B9696D1C0E988847D9
:100CA00082460F980560002E04DD504605F0C2FA1A
:100CB0000028D6D1F9690E988847FF208BF80000EC
:100CC00088F800000020069007904B466A4608A965
:100CD00006A8FFF777FEA00502D46FF001002AE70F
:100CE00014F0240F0AD0E00714D1DDE906123868A9
:100CF000031D3B600068C0E900120BE0DDE906015E
:100D0000FFF7D2FC0146E00704D13868021D3A60C3
:100D10000068016028460EE7000014400000F03F24
:100D2000F1D8FFFF426842B1016811F8013B23B1DD
:100D3000521EC0E90012184670470121C160881E8A
:100D4000704742685AB1C368016843B983688B42EF
:100D500005D0491E521CC0E90012002070474FF018
:100D6000FF3070477F2801D9002208E0064A02EBD5
:100D70005002C007127800D1120902F00F020120C0
:100D80009040084070470000C88500080EB540F24A
:100D9000334202920022CDE900221346FFF778FD8C
:100DA00003B000BD2DE9F04104460E460025006861
:100DB00002F039FC0746206802F02DFC07435BD0A7
:100DC0002068C168890111D5617F01290ED1217F79
:100DD00001290BD10126294902E08D423DD26D1C2B
:100DE0000268D2435206F8D440210160244D022EFD
:100DF0000FD0206802F017FC48B120688168C1F369
:100E0000400121B98168294041F010018160012E23
:100E10000DD0206802F0FFFB48B120688168C1F363
:100E2000400121B98168294041F020018160022EF2
:100E300008D0032E04D0042501F01AFB064617E063
:100E40000C25F9E70825F7E701F012FB801B0528C0
:100E50000ED92068806828420AD0E06D40F010006A
:100E6000E065206E40F0010020660120BDE8F081C1
:100E7000206880682842E7D10020F7E7000040A3FF
:100E8000C0FFFF7F10B5846AE16D11F0500F06D0EE
:100E9000E16DC90625D5204600F087FC10BDE06D48
:100EA00040F40070E06520680168090716D502F07B
:100EB000C2FB78B12068C068800400280ADBE06DBE
:100EC00020F48070E065E06DC00403D4E06D40F074
:100ED0000100E065204600F04BFC10BDC0688007B3
:100EE000EBE7616D496BBDE81040084710B5806ABB
:100EF000C16D41F04001C165016E41F00401016620
:100F000000F053FC10BD10B5806A00F04DFC10BD20
:100F100070B5044600688168C1F3400502F07FFBAC
:100F200048B345BB2068816801F00D01012914D147
:100F30008168124A1140891C816021680320086081
:100F400001F096FA054612E001F092FA401B0228E1
:100F50000DD920688068C00709D0E06D40F010000E
:100F6000E065206E40F001002066012070BD206821
:100F70008068C007E8D1002070BD0000C0FFFF7F7F
:100F8000F8B5044600200090206802F048FBE8BB5A
:100F900020688168214A11422ED18168D6433140B0
:100FA000491C81601E48806800F0E07000020DD589
:100FB0001C481D490068B0FBF1F0401C00EB4000EC
:100FC000800000E0401E00900028FBD101F050FAA4
:100FD00005461CE002F023FB20B9206881683140FF
:100FE000491C816001F044FA401B02280FD9206897
:100FF0000068C043C0070AD0E06D40F01000E06513
:10100000206E40F0010020660120F8BD04E0206859
:101010000168C943C907DDD10020F6E73F00008021
:101020000003005028000020400D0300FEE770B5CB
:1010300005460E460846FFF76DF90446024631465E
:101040002846FFF76EF928B9285D28B1202803D07B
:10105000092801D0002070BD012070BD10B5846A40
:10106000204600F0D9FE0120207110BD10B5846A21
:10107000204600F0EAFD0120207110BD10B5846A01
:10108000206940F004002061204600F0C7FE0120E6
:10109000207110BD10B5846A206940F00400206101
:1010A000204600F0D4FD0120207110BD10B5806AEB
:1010B00000F0B3FE10BD10B5806A00F0C7FD10BD92
:1010C000014800F0E7BF000068530020014800F02D
:1010D000E1BF0000C8530020014800F0DBBF000062
:1010E0003C5400200D4902688A4201D20C4901E0BB
:1010F0000B492031D2B21423083AB2FBF3F2436C0D
:1011000002F01F0223F00303194481640449803173
:10111000C16401219140016570470000080402404C
:10112000000802400179074A02EB81024265054A44
:101130004432491E826501F01F0201219140C165C0
:1011400070470000FC08024030B5D0E913456560E7
:10115000446D14B1D0E91645656090F8444004F040
:101160001F050124AC40056C6C60046863608368F3
:10117000102B036803D099600068C26030BD9A608C
:101180000068C16030BD704772B6FEE7B5EEC00AB8
:1011900010B5F1EE10FA01D8002010BD20EE200AA3
:1011A000074910EE100A884202DB4FF6FF7010BDAF
:1011B00004F056FDBCEEC00A10EE100A80B210BD5D
:1011C00000FF7F47B5EEC00A10B5F1EE10FA01D866
:1011D000002010BD20EE200A04F042FDBCEEC00A43
:1011E00010EE100A10BD0000F8B500250446009569
:1011F00090F858000E4601280BD0012084F85800C2
:101200002046FFF785FE0200E06D04D040F010009C
:101210002AE00220F8BD20F4885040F00200E0658A
:1012200020688168134B194006F08043194341F050
:1012300000418160104B20680EE00099491C00912C
:10124000994209D3E06D20F0020040F01000E06503
:1012500084F858500120F8BD8168C90FEDD1E06DC8
:1012600020F0020040F00100E06584F8585010467C
:10127000F8BD0000C0FFFF3F02DE04002DE9F0478B
:10128000044690F858009CB00D464FF00009012824
:1012900015D0012084F8580000261796189620686B
:1012A0004FF0A04840450ED1284F0097384602F035
:1012B000BEF98246206802F0BAF960B10EE0022061
:1012C0001CB0BDE8F087E06D40F02000E06584F8D8
:1012D00058600120F4E7BAF1000F09D0E06D40F04A
:1012E0002000E0654FF0010984F858604846E7E7C0
:1012F0001748296840F61F720029816821F460416F
:1013000016D094F8383041EA43316B681943816054
:10131000D8F80810BB68C1F30001C3F300031943F8
:10132000E2D1AB68296819438368934319430BE002
:101330008160D8F80810BB68C1F30001C3F3000353
:101340001943D1D1816891438160CDE700010050FC
:10135000000300502DE9F84F00270446009790F84D
:101360005800DFF8D8930D46B846012810D0012662
:1013700084F85860206802F056F958B1E06D40F0EA
:101380002000E065012784F858803846BDE8F88FD2
:101390000220FBE7D5E900210C23206803EA911322
:1013A0001844036B01F01F014FF01F0C0CFA01FCF5
:1013B000C2F3846223EA0C038A4013430363206868
:1013C00002F031F98246206802F025F95AEA00015C
:1013D0003CD1AA6829682068B2F1004F37D002F0EA
:1013E00032F92068416921F00041416120686A6951
:1013F000C168C1F3C10149008A402969042931D07B
:1014000000EB81002B68016EDFF834C303F0F84372
:1014100001EA0C011343194341F0004101662268BF
:101420002869A96902EB8000026E22F080720A43EB
:101430000266297F22682869012910D0002102EB69
:101440008000026E22F000720A4302667DE00022F4
:1014500002F0F9F82068416941F00041C5E74FF01A
:101460000071ECE7002102F0D0F8400320684FF053
:10147000000171D002F0C9F890FAA0F0B0FA80F142
:10148000286842036DD090FAA0F0B0FA80F0814253
:1014900004D100221146206802F0E4F801212068FE
:1014A00002F0B3F8400320684FF001015CD002F075
:1014B000ACF890FAA0F0B0FA80F12868420358D056
:1014C00090FAA0F0B0FA80F0814204D1002201210C
:1014D000206802F0C7F80221206802F096F8400365
:1014E00020684FF0020147D002F08FF890FAA0F088
:1014F000B0FA80F12868420343D090FAA0F0B0FA25
:1015000080F0814204D100220221206802F0AAF872
:101510000321206802F079F8400320684FF00301AE
:1015200032D002F072F890FAA0F0B0FA80F1286898
:1015300042032ED090FAA0F0B0FA80F0814204D19C
:1015400000220321206802F08DF8206802F067F87D
:1015500010B3AAE000E004E002F057F8C0F38461A1
:101560008EE7C0F3846092E702F04FF8C0F3846125
:10157000A3E7C0F38460A7E702F047F8C0F38461F3
:10158000B8E7C0F38460BCE702F03FF8C0F38461C1
:10159000CDE7C0F38460D1E721682A7B286851F841
:1015A000B03FC0F3120C23EA0C0302F0180C654A9A
:1015B00022FA0CF2024013430B60E968494574D1EA
:1015C000286841031AD090FAA0F1B1FA81F1491CC0
:1015D00001F01F0109294FEA403130D8002910D00D
:1015E00090FAA0F1B1FA81F101F1010101F01F01BE
:1015F00006FA01F608D1C0F3846109E0C0F3846102
:10160000E5E7C0F38461EFE790FAA0F1B1FA81F168
:1016100001F1010101F01F0146EA816102D1C0F32D
:10162000846003E090FAA0F0B0FA80F000F10100CD
:1016300000F01F0000EB400041EA005131E00029BA
:101640000DD090FAA0F1B1FA81F101F1010101F0A0
:101650001F0106FA01F605D1C0F3846106E0C0F36C
:101660008461F2E790FAA0F1B1FA81F101F1010190
:1016700001F01F0146EA816102D1C0F3846003E0FA
:1016800090FAA0F0B0FA80F000F1010000F01F0025
:101690002D4A00EB400002EB005041EA000141F00E
:1016A0000071AA68206801F0CEFF2848296801422D
:1016B0003FF469AE264A9068264B00F0E0709942EC
:1016C00002D0254B99421CD103021AD42168B1F1F2
:1016D000A04F7FF458AE916840F4000021F0E07113
:1016E000014391601D481E490068B0FBF1F0401CA9
:1016F00000EB4000800000E0401E00900028FBD17D
:1017000041E6184D184BA94207D1C50105D42168FF
:101710009942F5D040F0807009E0144DA942EFD114
:101720004102EDD421689942EAD040F480009168EA
:1017300021F0E0710143916025E6000000007F4048
:1017400000F0FF03FFFF0700000020FE00000880FC
:1017500000030050000021C31000C09028000020AA
:10176000400D0300000052C700010050000084CB70
:10177000006801220A49B0F1A04F0BD0094B9842F2
:1017800007D14A704878002803D00878002800D094
:101790008A7070470A7008780028FAD04878F5E710
:1017A000000000200001005070477047F8B54FF06E
:1017B000000504002E46009502D0E06D10B107E050
:1017C0000120F8BD204600F0E9F8266684F858604C
:1017D00020688168C1F3407119B18168674A11407E
:1017E000816020688168C1F3007189B98168644AA9
:1017F000114041F080518160624863490068B0FB4C
:10180000F1F04000801C00E0401E00900028FBD159
:1018100020688168C1F3007141B9E16D41F01001A8
:10182000E165216E41F001012166012501F0FBFE19
:10183000E16DC90600D430B1E06D40F01000E06504
:1018400001252846F8BDE06D20F4807040F00200CC
:10185000E065206801F0E3FE88B94FF0A0408068A1
:101860004A49C0F300008968C1F30001084306D16A
:10187000474960688A6822F47C1202438A60E16802
:10188000E06B627F0843A16841EA4231084394F863
:10189000241040EA0140012904D1218D3D4A02EB88
:1018A00041410843E16A29B101F47871226B014397
:1018B00042EA01002168CA68374B1A400243CA60F5
:1018C00020680169626B21F0406111430161206869
:1018D00001F0A1FE70BB207F94F83810800340EA2D
:1018E00041012068C26844F202039A430A43C2607D
:1018F00020690028206801690AD041F48031016123
:10190000206850F8C01F22696FF30D01114307E0F2
:1019100021F480310161206850F8C01F6FF30D0180
:10192000016094F8400001280CD02068016921F082
:1019300001010161606901282068016B21F00F013C
:1019400010D012E0D4E911100143D4E9130210437E
:1019500001432068026940F2FC739A43114341F04D
:101960000101E6E7226A521E11430163E06D20F097
:10197000020040F00100E06563E70000C0FFFF5F88
:10198000C0FFFF7F28000020400D03000001005031
:10199000000300500000FEFF0740F0FF2DE9F04F6C
:1019A00097B00446142111A8FEF79DFC4421684617
:1019B000FEF799FC4FF40041206800268A03434F4C
:1019C000434D4FF003084FF080094FF4807A4FF4F5
:1019D000806BB0F1A04F10D03E4B984243D10F9294
:1019E0006846009100F042FE08B1FFF7CDFB386871
:1019F000401C3860012839D040E00F9268460091C1
:101A000000F034FE08B1FFF7BFFB3868401C3860B7
:101A1000012807D1E86C40F40050E864E86C00F459
:101A200000501690E86C40F00100E864E86C1396F2
:101A300000F0010016900120CDE9110811A94FF026
:101A4000904000F03DFC254D234828600520C5E965
:101A5000010605F10C0080E8400EEE6128462E627A
:101A60002CE06565AC6217B0BDE8F08FE86C40F41F
:101A70000050E864E86C00F400501690E86C40F008
:101A80000100E864E86C139600F001001690022053
:101A9000CDE9110811A94FF0904000F011FC0F4D55
:101AA0000D486035143028602420C5E9010605F191
:101AB0000C0080E8400EEE6128462E6200F048FBE4
:101AC0000028CED0FFF760FBCBE700001800002015
:101AD000001002400001005008000240685300203E
:101AE0002DE9F0410446344817468846806800F0E6
:101AF0001F05206801F097FD00285AD194F858007E
:101B0000012856D0012084F85800002625B1052D63
:101B100002D0092D00D003E02046FFF731FA18B1BA
:101B200084F85860BDE8F081E06D40F601618843BB
:101B300040F48070E06521492068884202D14FF06E
:101B4000A04100E00146814200D01DB9E06D20F4C3
:101B50008010E065E06DC00404D5206E20F0060022
:101B6000206600E02666616D1548C862616D154803
:101B70000863616D1448486321681C20086084F87C
:101B800058602068416841F0100141602068C168D8
:101B900041F00101C16021683B4642464031606D21
:101BA00000F036FB21688A68084B1A40121D8A60D3
:101BB000B8E70220B6E70000000300500001005023
:101BC000850E0008070F0008ED0E0008C0FFFF7F1C
:101BD00070B5044690F85800012809D0012084F817
:101BE000580003212046FFF7DDF8050002D027E06A
:101BF000022070BD2068C16821F00101C160606DE4
:101C000090F82510022907D100F00FFA050003D043
:101C1000E06D40F04000E0652068416821F010016F
:101C20004160204615B1FFF773F909E0FFF770F93D
:101C3000050005D1E06D20F4885040F00100E0651A
:101C4000002084F85800284670BD704770477047E0
:101C50002DE9F04790460D4604004FF0000A0FD0E2
:101C600075B1607901280ED04FF0010984F8059014
:101C700002202071A96808F01006042905D049E067
:101C80000120BDE8F0870220FBE700F0F1FB0746EA
:101C90005FEA08004FF0030809D021E000F0E8FBFC
:101CA000C01B012803D92068406B000410D42068B1
:101CB000406B0004F2D42168686A086417E000F001
:101CC000D7FBC01B01280BD92068406B002807DA1E
:101CD000206940F00800206184F804800320D0E7E8
:101CE0002068406B0028EADB2168686A4864206845
:101CF000816C40F2FF32B2409143AA6AB240114374
:101D000081642068C16CFF22B2409143EA6AB2400C
:101D10001143C164E869012808D12068826B1F2142
:101D2000B1408A43296AB140114381632068C26B84
:101D30000720B0408243A869012803D0022856D06A
:101D40006869E8B300206B69A968194301434FF43F
:101D5000807000FA06F39A432B79012B00D0002003
:101D600008434FF4007101FA06F39A436B79012B93
:101D700000D0002141EA0008286822F440470228E8
:101D800037D00743216808FA06F03843C863206853
:101D900001684FF48042B2409143016020680268BC
:101DA00040F6FE71B1408A43E968B14011430160D9
:101DB00020680168C022B24091430160287B00E0A6
:101DC00015E0297CC0F3830001F03C0140EA811159
:101DD0002068026E40F60F73B3409A43B1400A4345
:101DE000026684F8049000206071504649E70120A3
:101DF000A9E700F077FE0649884202D947F4004778
:101E0000C0E704498842BDD947F48047BAE70000DB
:101E10000068890900B4C40470477047704770B502
:101E2000040003D02079002510B105E0012070BD29
:101E30006571204600F008F802202071256101201C
:101E40002071002070BD0000F0B587B00546142158
:101E50006846FEF748FA1D492868884233D11C4974
:101E6000C86C40F48030C864C86C00F480300590C1
:101E7000C86C40F00100C864C86C102700F0010075
:101E80000097059003200026CDE9010669464FF032
:101E9000904000F015FA104C0E4820600620C4E96E
:101EA00001078020C4E90360800060614000A061F8
:101EB0002020C4E90706204600F04AF908B1FFF7E0
:101EC00063F9AC60A56207B0F0BD000000080050E7
:101ED00000100240300002403C540020F8B50D468E
:101EE0000699174604001BD0607901281AD00126F4
:101EF000667102202071BDB1E2682F48D062E268AD
:101F00002E481063E2682E4850632068026842F051
:101F10008052026039B32268042927D01C3226E09F
:101F20000120F8BD0220F8BDA2682648D062A26850
:101F300025481063A268254850632068026842F46F
:101F40008052026021B12268042904D0103203E0DB
:101F50002268083200E00C322068016841F4005128
:101F60000160A06809E02268143200E0183220689D
:101F7000016841F000510160E068394600F048F91D
:101F80000021617120B1216941F004012161F8BD96
:101F900021680A6805F010039E4032430A600C492C
:101FA0000C4A0968B1FBF2F1491C00E0491E00919E
:101FB0000029FBD1F8BD00006D100008B710000823
:101FC000951000085D100008AD1000087D10000895
:101FD00028000020400D030070B504001BD02268CB
:101FE000136801F010004FF480558540AB43136037
:101FF00022681368012505FA00F08343136061B17C
:10200000E06800F012F82068016821F000510160DA
:102010002571002070BD012070BDA06800F005F89A
:102020002068016821F40051F1E710B590F82520EF
:1020300000210123022A03D00421C163012122E0EF
:102040000268146824F00E041460826C146824F48E
:10205000807414600268146824F00104146090F81D
:102060004420046C02F01F0203FA02F26260D0E91D
:1020700013245460426D32B1146824F480741460E7
:10208000D0E91624546080F82530002280F82420FE
:10209000084610BDF0B4016C0B6801680A6890F83E
:1020A0004440042504F01F0405FA04F61E4211D032
:1020B00056070FD50A68920603D40A6822F0040274
:1020C0000A6090F8441001F01F018D40016C4D60D2
:1020D000016B1DE0022606FA04F71F424FF0000CC8
:1020E0004FF0010518D0970716D50A68920605D457
:1020F0000A6822F00A020A6080F8255090F844101D
:1021000001F01F018E40016C4E6080F824C0C16A4E
:1021100000291AD0F0BC08470826A6401E4214D059
:10212000120712D50A6822F00E020A6090F84410D5
:10213000026C01F01F0105FA01F15160C56380F8DE
:10214000255080F824C0416BE2E7F0BC70470000E6
:1021500070B504000CD02B4A20681421904209D29B
:10216000294A0244B2FBF1F18900616427490AE07F
:10217000012070BD234A52420244B2FBF1F18900B2
:102180006164204908392164022184F8251001681E
:1021900047F6F0729143D4E902231A43D4E9043597
:1021A0002B431A43A3691A43E3691A43236A1A4368
:1021B0000A4302602046FEF795FFA0680025B0F5AF
:1021C000804F00D16560A16C20790860D4E91301CB
:1021D00041606068401E032808D82046FEF7A2FF31
:1021E000606D0560D4E91601416002E06565A56592
:1021F000E565E563012084F8250084F8245000207B
:1022000070BD000008040240F8FFFDBF000002405E
:1022100070B5044690F82400002501280CD0012058
:1022200084F8240094F825600020012E06D084F85C
:1022300024000225284670BD022070BD022684F8C5
:102240002560E0632068066826F0010606602046E7
:10225000FEF77AFF206B00282068016802D041F069
:102260000E0106E021F0040101602068016841F0E0
:102270000A010160A06C0168C90303D5016841F43B
:1022800080710160606D18B1016841F48071016076
:102290002068016841F001010160CBE770B5044698
:1022A00000F0E6F80546601C02D00448406804448B
:1022B00000F0DEF8401BA042FAD370BD1C000020E5
:1022C0002DE9F84FDFF888910022A9F1040B0327CC
:1022D0004FF00F0C09F1040AABF1040EB1E0012537
:1022E00095402B4073D00C7904F00304012C01D0ED
:1022F000022C15D18668540007FA04F826EA08066D
:10230000D1F80C8008FA04F848EA0608C0F80880FA
:102310004468AC430D79C5F30015954025434560ED
:102320000C79E443A40708D0C568540007FA04F602
:10233000B5438E68A6402E43C6600C7904F00304B2
:10234000022C11D1D40800EB8406356A5407E40E40
:102350000CFA04F825EA0805D1F8108008FA04F808
:1023600048EA0508C6F820800568540007FA04F614
:10237000B5430E7906F00306A6402E4306604C686E
:1023800014F4403F5CD0334C256E45F001052566C2
:10239000246E22F0030504F0010400942E4C05EB9A
:1023A0000408D8F808509407260F0CFA06F4A54341
:1023B000B0F1904F04D0294CA04203D1012417E082
:1023C000002415E0264CA04202D1022410E037E0A0
:1023D000244CA04201D103240AE0234CA04201D1A5
:1023E000042405E0214CA04201D1052400E006248C
:1023F000B4402C43C8F80840D9F800404D464E6818
:102400009C43F60200D51C432C60DAF80040554688
:102410004E689C43B60200D51C432C60DBF800409C
:102420005D464E689C43B60300D51C432C60DEF825
:10243000004075464E689C43F60300D51C432C6053
:10244000521C0B6833FA02F47FF449AFBDE8F88FF1
:102450000804014000100240000001400004004850
:1024600000080048000C0048001000480014004814
:1024700001488068704700001C0000200248816805
:1024800042681144816070471C00002010B5002490
:10249000032000F073F80F2000F008F808B10124C1
:1024A00001E000F025F8204610BD000070B50E4E8A
:1024B00005460024706898B14FF47A71B1FBF0F0D2
:1024C0000A490968B1FBF0F000F068FD40B9102D31
:1024D00006D200222946501E00F030F8356000E098
:1024E0000124204670BD00001C00002028000020B0
:1024F0000A4882B0016E41F001010166016E01F0EF
:1025000001010091816D41F080518165806D00F085
:102510008050009002B000F0A1B80000001002400E
:10252000002809DB00F01F020121914040098000D2
:1025300000F1E020C0F8001170470000F0B40E4B2D
:102540001B68C3F30223C3F10704042C00D904243D
:102550001D1D072D01D2002300E0DB1E012606FA17
:1025600004F56D1E0D409D409E40761E164045EAC6
:102570000601F0BC03F0C5B80CED00E0064A00F01F
:10258000070110684FF6FF03184040EA0120034995
:1025900008431060704700000CED00E00000FA05F1
:1025A0002B492C4B0A6832214A432B4940B1B0F5E4
:1025B000007F086829D020F4C06040F480602CE0DF
:1025C0000868C0F34120022804D051F8800F20F49D
:1025D000807022E0D1F8800020F48070C1F8800083
:1025E000086820F4C06040F400700860B2FBF3F0AB
:1025F000401C00E0401E4A69520501D50028F9D16F
:10260000486940050AD503207047C0F341200228DD
:1026100006D051F8800F40F48070086000207047A9
:10262000D1F8800040F48070C1F88000086820F480
:10263000C06040F400700860B2FBF3F0401C00E0A2
:10264000401E4A695205DBD50028F9D1D8E70000C1
:102650002800002040420F000070004002488168BE
:1026600041F4804181607047007000402DE9F84FCF
:10267000044600260068A24D374600035CD5A86DCD
:102680004FF00009C00009D4A86D40F08050A86543
:10269000A86D4FF0010900F080500090DFF864A2AF
:1026A000DAF8001041F48071CAF80010FFF7E0FE7C
:1026B000804607E0FFF7DCFEA0EB0800022801D906
:1026C000032631E0DAF80000C005F3D566BBD5F883
:1026D000900010F4407014D0216C814211D0D5F8D4
:1026E0009000D5F8901020F4407041F48031C5F886
:1026F0009010D5F8901021F48031C5F89010C5F8ED
:102700009000C0074ED0FFF7B3FE804641F2883AF2
:1027100005E0FFF7ADFEA0EB08015145D0D8D5F894
:1027200090008007F5D5EEB33746B9F1000F03D01E
:10273000A86D20F08050A8652078C00707D0D5F894
:102740008800616820F003000843C5F888002078FD
:10275000800707D5D5F88800A16820F00C00084351
:10276000C5F888002078400707D5D5F88800E168CB
:1027700020F030000843C5F888002078000707D50E
:10278000D5F88800216920F0C0000843C5F888000A
:102790002078800609D5D5F88800616920F440606A
:1027A000084300E03DE0C5F888002078400607D5E2
:1027B000D5F88800A16920F440500843C5F8880086
:1027C0002078000607D5D5F88800E16920F440405C
:1027D0000843C5F888002088C00507D5D5F88800CB
:1027E000216A20F440300843C5F88800208880051D
:1027F00007D5D5F88800616A20F440200843C5F861
:1028000088002088400519D5D5F88800A16A20F4F1
:1028100040100843C5F88800A06AB0F5801F09D0B1
:102820000CE0D5F89000216C20F440700843C5F806
:1028300090007AE7E86840F48010E860208800059E
:102840000FD5D5F88800E16A20F440000843C5F8A8
:102850008800E06AB0F5800F03D1E86840F480108A
:10286000E8602088C0040FD5D5F88800216B20F0DF
:1028700040700843C5F88800206BB0F1807F03D119
:10288000E86840F48010E860208881044FF0006020
:102890000ED5D5F88810626B21F040611143C5F860
:1028A0008810616B814203D1E96841F48011E960CD
:1028B000218849040ED5D5F88810A26B21F040611B
:1028C0001143C5F88810A16B814203D1E86840F438
:1028D0008010E860208800040FD5D5F88800E16BEF
:1028E00020F040500843C5F88800E06BB0F1805FED
:1028F00003D1E86840F48030E8603846BDE8F88FDE
:1029000000100240007000402DE9F0470D46040021
:102910004FF0000725D0DFF8AC91D9F8000000F0A7
:102920000F00A8420CD2D9F8001021F00F01294362
:10293000C9F80010D9F8000000F00F00A84210D12B
:102940002168614EC80741F2883A58D06068DFF8C4
:102950007C81032808D0022830682CD0400500284C
:102960002BDB0120BDE8F08730688001F9D5F068E5
:1029700000F00302F068C0F30310401C032A18D0D3
:10298000534AB2FBF0F0F268C2F306225043F268F9
:10299000C2F34162521C5200B0FBF2F0404517D91D
:1029A000B06810F0F00F0CD0880711D5A06840B1C6
:1029B0000EE0484AE5E78003D1E700F0BDF8404566
:1029C00006D9B06820F0F00040F08000B0608027A9
:1029D000B068616820F003000843B060FFF748FD6D
:1029E000804605E0FFF744FDA0EB080151453BD8C8
:1029F000B068616800F00C00B0EB810FF2D1206884
:102A0000810714D5400703D5B06840F4E060B0609A
:102A10002078000705D5B06820F4605040F4E060ED
:102A2000B060B068A16820F0F000084304E0802F97
:102A300003D1B06820F0F000B060D9F8001048462B
:102A400001F00F01A94217D90168C84621F00F0112
:102A500029430160FFF70CFD0746D14606E0FFF76A
:102A600007FDC11B494501D903207BE7D8F80000C9
:102A700000F00F00A842F2D12078400705D5B068D9
:102A8000E16820F4E0600843B0602078000706D5D4
:102A9000B068216920F4605040EAC100B06000F0E5
:102AA0004BF8B1680C4AC1F30311515C01F01F01EE
:102AB000C8400A4908600A480068BDE8F047FFF7C7
:102AC000F5BC0000002002400010024000B4C40425
:102AD0000024F400001BB700D07900082800002073
:102AE0001C000020014800687047000028000020FA
:102AF0000548064900688968054AC1F30221515C0E
:102B000001F01F01C840704728000020001002405B
:102B1000E07900080548064900688968054AC1F35C
:102B2000C221515C01F01F01C840704728000020FD
:102B300000100240E0790008184A10B59068C0F310
:102B40008101174801290BD09168164CC1F381010E
:102B5000022906D09168C1F38101032903D0002026
:102B600010BD204610BDD16801F00303D168C1F348
:102B70000311491C032B02D0B0FBF1F001E0B4FBC0
:102B8000F1F0D168C1F306214843D168C1F3416136
:102B9000491C4900B0FBF1F010BD000000100240DC
:102BA0000024F400001BB7002DE9F843040078D09E
:102BB0002078F54DC00745D0A868E96800F00C0002
:102BC00001F003010C2802D0082817D001E00329E6
:102BD00014D06068B0F5803F17D0B0F5A02F2868FA
:102BE00017D020F480302860286820F480202860E6
:102BF0006068D8B1FFF73CFC064613E02868800304
:102C000020D560680028D2D01CE0286840F48030CD
:102C1000EDE740F480202860F7E7FFF729FC801BF0
:102C200064286ED828688003F7D50BE0FFF720FCF6
:102C3000064604E0FFF71CFC801B6428F1D82868D6
:102C40008003F7D4207880074BD5A868E96800F0A6
:102C50000C0001F003010C2802D004280DD001E083
:102C600002290AD0E068002828682BD040F4807040
:102C70002860FFF7FDFB064619E02868400502D5ED
:102C8000E068002893D06868217C20F0FE4040EA8C
:102C900001606860BD480068FFF708FC002800D1AB
:102CA0001FE06DE1FFF7E4FB801B0228B9D828681C
:102CB0004005F7D56868217C20F0FE4040EA0160BD
:102CC00068600EE020F480702860FFF7D1FB0646B4
:102CD00004E0FFF7CDFB801B0228A2D8286840053E
:102CE000F7D42078000728D560690028D5F894002B
:102CF00012D040F00100C5F89400FFF7B9FB06467A
:102D000005E08FE0FFF7B4FB801B022889D8D5F8D7
:102D100094008007F6D510E020F00100C5F894007B
:102D2000FFF7A6FB064604E0FFF7A2FB801B022884
:102D300078D8D5F894008007F6D42078400761D57C
:102D4000A86D0027C00008D4A86D40F08050A86589
:102D5000A86D012700F0805000908D480168C905DA
:102D600011D40168804641F480710160FFF780FB57
:102D7000064604E0FFF77CFB801B022852D8D8F8F7
:102D80000000C005F6D5A068012815D00528D5F8A3
:102D9000900016D020F00100C5F89000D5F8900002
:102DA00020F00400C5F89000A06841F28838B8B15E
:102DB000FFF75EFB06460EE0D5F8900040F00100FC
:102DC000F0E740F00400C5F89000F5E7FFF750FB8E
:102DD000811B414526D8D5F890008007F6D50CE038
:102DE000FFF746FB064604E0FFF742FB811B414527
:102DF00018D8D5F890008007F6D41FB1A86D20F040
:102E00008050A8652078800628D5A0690028D5F8CC
:102E1000980012D040F00100C5F89800FFF728FB99
:102E2000064605E072E0FFF723FB801B02286DD801
:102E3000D5F898008007F6D510E020F00100C5F81D
:102E40009800FFF715FB064604E0FFF711FB801B17
:102E500002285BD8D5F898008007F6D4E069E8B37B
:102E6000A968C1F3810103295BD00228286820F0FA
:102E70008070286003D0FFF7FBFA044649E0FFF7B3
:102E8000F7FA064604E0FFF7F3FA801B02283DD864
:102E900028688001F7D4F4E908016FF00F0202EB13
:102EA00001110843218A5204490802EB4151A268EA
:102EB00041EA02210843217D4FF07E42490802EB9E
:102EC00041610843217B40EAC160E968314A114011
:102ED0000843E860286840F0807000E052E0286015
:102EE000E86840F08070E860FFF7C2FA044604E04A
:102EF000FFF7BEFA001B022808D828688001F7D522
:102F000040E0FFF7B5FA001B022802D90320BDE814
:102F1000F88328688001F4D4E8681F490840E86015
:102F200030E00128F3D0E868226A00F00301914202
:102F300026D1616A00F0F0020901103991421FD1D7
:102F4000A26A00F4FE41B1EB022F19D194F82C20B3
:102F500000F07841B1EBC26F12D1218E00F4C002B3
:102F600049084905A1F50011914209D194F834109E
:102F700000F0C06049084906A1F10071814201D00A
:102F80000120C4E70020C2E7001002401C0000201E
:102F9000007000400C809F01FCFFEEFE10B5401E4B
:102FA000B0F1807F01D3012010BD4FF0E0246061BB
:102FB0000F21601702F0A5FB0020A061072020610F
:102FC000002010BDF0B590F83C20012A3AD0012530
:102FD00080F83C50022280F83D2003685A689C68C3
:102FE000194E1A4FB34201D0BB4204D122F4700CE7
:102FF0004A6842EA0C02DFF858C002EA0C02D1F833
:1030000000C04CEA020CC3F804C00268B2420DD002
:10301000B2F1804F0AD00F4B9A4207D00E4B9A4222
:1030200004D0BA4202D00D4B9A4204D1896824F0F0
:1030300080031943916080F83D50002180F83C10D6
:103040000846F0BD0220F0BD002C014000340140D4
:103050008FFFFFFD000400400008004000400140D9
:1030600010B5040003D094F83D0010B107E0012032
:1030700010BD002084F83C00204600F023F8022018
:1030800084F83D00211D206801F002FF012084F832
:10309000480084F83E0084F83F0084F8400084F83B
:1030A000410084F8420084F8430084F8440084F826
:1030B000450084F8460084F8470084F83D0000206D
:1030C00010BD000008B500680B4A0C49904207D1BA
:1030D000086E40F400600866086E00F4006009E0C5
:1030E000B0F1804F07D1886D40F001008865886D90
:1030F00000F00100009008BD002C014000100240CB
:1031000090F83D10012901D001207047022180F87C
:103110003D1000680F4988420ED0B0F1804F0BD0AF
:103120000D49884208D00D49884205D00C49884293
:1031300002D00C49884207D181680B4A1140062908
:1031400006D0B1F5803F03D0016841F00101016074
:1031500000207047002C014000040040000800409F
:1031600000340140004001400700010001680A6A84
:1031700041F211131A4207D10A6A9B001A4203D185
:103180000A6822F001020A60012180F83D10002047
:103190007047000070B5044690F83C0000250128F7
:1031A00014D0012684F83C60022084F83D00206899
:1031B0008268364B1A4022F47F4282600868702889
:1031C0002ED010DC10F00F0F03D021E04FF00200E2
:1031D00070BD4FEA2012072A1AD2DFE802F05252DD
:1031E00052524A3840002A4BC21A984249D009DC50
:1031F000B0F5805F0DD0B0F5005F1CD0B0F1101FAE
:1032000006D13EE0102A3CD0202A3AD0502A38D0AD
:10321000012584F83D60002084F83C00284670BDFC
:10322000CB68D1E90121206801F090FE2068816817
:1032300041F0770109E0CB68D1E90121206801F074
:1032400085FE2068816841F480418160E1E7CA68B9
:103250004968206801F08EFE5021206806E0CA68A7
:103260004968206801F097FE6021206801F078FE2F
:10327000CFE7CA684968206801F07CFE40212068D9
:10328000F4E7226801461046F0E7000088FFCEFF11
:103290002000100090F83C20012A0CD0012200F8F8
:1032A0003C2F0223437050F83C3C5961427000218E
:1032B0000170084670470220704790F88410012979
:1032C00018D0012180F884102421C0F888100168EA
:1032D0000A680B6823F001030B6022F00051002202
:1032E0004266036819602021C0F8881080F88420A5
:1032F000104670470220704770B5044690F884006D
:1033000001281DD0012084F884002420C4F88800FE
:1033100020680568026822F0010202602068826865
:1033200022F060620A438260204601F047FE206876
:1033300005602020C4F88800002084F8840070BD57
:10334000022070BD70B5044690F8840001281DD09D
:10335000012084F884002420C4F8880020680568CF
:10336000026822F0010202602068826822F0604256
:103370000A438260204601F021FE2068056020207B
:10338000C4F88800002084F8840070BD022070BD5D
:1033900010B5040003D0D4F8880010B107E0012074
:1033A00010BD002084F88400204600F027F8242077
:1033B000C4F888002068016821F001010160A06A5A
:1033C00010B1204601F01CFE204601F0F5FF012857
:1033D000E6D02068416821F490414160206881680E
:1033E00021F02A0181602068016841F0010101603B
:1033F0002046BDE8104001F067BE000010B598B04F
:103400000446142111A8FCF76EFF44216846FCF71E
:103410006AFF17492068884228D101200024CDE99D
:1034200000046846FFF722F908B1FDF7ADFE114828
:10343000016E41F480410166016E01F480411691F4
:10344000C16C41F00101C164C06C11A900F0010020
:1034500016904FF4C06011900220CDE912040720AD
:10346000CDE914404FF09040FEF72AFF18B010BD90
:1034700000380140001002402DE9F84F0446D0F812
:103480008C00994617460E46202802D00220BDE83F
:10349000F88FC6B1BFB10025C4F890502220C4F8FF
:1034A0008C00E5662034FEF7E3FFA7878346E787B5
:1034B00054F8180C4FF48052FF23203C904207D15F
:1034C000216911B118E00120E1E740F2FF1119E094
:1034D0007F2178B1B0F1805F11D0A4F86050B4F8CA
:1034E00060704FF0200A904201D1206968B13546E2
:1034F00000260BE025692DB9A4F86030EFE72369B9
:1035000003B13F21A4F86010E9E7002507F0FF08A8
:10351000B4F85E00E8B15B46002220212046CDF8D9
:10352000009002F081F818B1C4F88CA00320AEE737
:103530002068406A4DB100EA080005F8010BB4F8B4
:103540005E00401EA4F85E00E2E7384026F8020B59
:10355000F5E7C4F88CA0002099E72DE9F84304466C
:10356000D0F888001F4615460E46202802D00220BB
:10357000BDE8F883AEB1A5B10020C4F890002120C9
:10358000C4F888001834FEF773FFA5878146E587E5
:1035900054F8100C183C4FF02008B0F5805F02D0B2
:1035A00003E00120E4E7206910B13546002610E071
:1035B00000250EE08021204602F036F8B8B9D5B1DA
:1035C00015F8010B21688862B4F85600401EA4F873
:1035D0005600B4F856004B464FF000020097002802
:1035E000E8D14FF04001204602F01EF840B1C4F887
:1035F00088800320BCE736F8020BC0F30800E1E73F
:10360000C4F888800020B3E7FEE700EB8100006E7D
:1036100000F0F84070478068C0F3C00070478068D1
:10362000C0F3000070478068C0F380007047806876
:10363000C0F380007047C06810F4406F01D00020D4
:10364000704701207047042303EAD15310B5184492
:103650004369C1F3045107248C40A3438A401343B8
:10366000436110BD00EB8100016E21F00041114368
:103670000166704730B58BB000240894099420216E
:1036800068460A94FCF72FFE1E484FF0A04104251F
:1036900001604FF44031C0E90114C4600461C0E925
:1036A0000545047744770121016280F824404FF4F6
:1036B000A461C1622902016380F83840C46380F8C4
:1036C0004040FEF773F808B1FDF75EFD08A90D480C
:1036D0000894FDF7D3FD08B1FDF756FD0A480090A8
:1036E00006200190022002907F200594CDE9030579
:1036F00069460448FDF72EFE002801D0FDF744FD81
:103700000BB030BD905200200200300430B589B0BB
:1037100020216846FCF7E7FD1B481A490024016098
:103720004FF44031C0E90114C46004250461C0E9CC
:103730000545047744770121016280F824404FF465
:10374000A461C1622902016380F83840C46380F833
:103750004040FEF72BF808B1FDF716FD0B4800902E
:1037600006200190022002907F200594CDE90305F8
:1037700069460548FDF7EEFD002801D0FDF704FD80
:1037800009B030BD00010050FC5200200400600868
:1037900000B58DB030216846FCF7A5FD12491148EF
:1037A00008600846FEF73BFB08B1FDF7EDFC022080
:1037B0000090002012218DF80400CDE902018DF85F
:1037C000050001210490CDE90501024607906946F4
:1037D0000548FEF73DFA002801D0FDF7D5FC0DB0F5
:1037E00000BD00000008005028540020154808B50E
:1037F000816C41F004018164816C01F0040100914D
:10380000816C41F001018164806C002200F00100B4
:10381000009011460B20FEF791FE0B20FEF780FE74
:10382000002211460C20FEF789FE0C20FEF778FEE0
:10383000002211460D20FEF781FEBDE808400D2054
:10384000FEF76EBE00100240114808B5C16C41F091
:103850000401C164C16C01F004010091C16C41F02C
:103860002001C164C16C01F020010091C16C41F0E4
:103870000101C164C16C01F001010091C16C41F012
:103880000201C164C06C00F00200009008BD00009D
:103890000010024010B588B000241848009401942C
:1038A0000294039404940594134906940160102132
:1038B000C0E901146321C0E9031444618461FFF786
:1038C000CFFB08B1FDF760FC4FF4805000906946D3
:1038D0000A48FFF75FFC08B1FDF756FC2020CDE950
:1038E000040404A905480694FFF76CFB002801D0E6
:1038F000FDF74AFC08B010BD002C01409C5400208C
:1039000010B588B0002417480094019402940394E1
:10391000049405944FF08041069401601021C0E9A1
:1039200001140921C0E9031480218161FFF798FB8C
:1039300008B1FDF729FC4FF4805000906946094812
:10394000FFF728FC08B1FDF71FFC2020049004A914
:1039500006940448FFF736FB002801D0FDF714FC5D
:1039600008B010BDE8540020184810B51649016091
:103970004FF4E1314160002181600C22C160C0E957
:1039800004128161C161016241628162FFF700FD41
:1039900008B1FDF7F9FB00210C48FFF7D3FC08B193
:1039A000FDF7F2FB00210948FFF7A6FC08B1FDF77F
:1039B000EBFB0648FFF781FC002803D0BDE8104070
:1039C000FDF7E2BB10BD0000003801403455002077
:1039D00030B509B1002319E09FED180A30BD5A1C1B
:1039E00000EB83050FE000EB820495ED000AD4EDB7
:1039F000000AF4EEC00AF1EE10FA03D2C5ED000A97
:103A000084ED000A521C8A42EDD35B1C5A1C8A4288
:103A1000E5D3CA074FEA510100EB810002D090EDD7
:103A2000000A30BD10ED010AD0ED000A30EE200A88
:103A3000F6EE000A20EE200A30BD00000000000073
:103A4000FEE7FEE7F8B505460E46006800F015F8FB
:103A500004466946009002F037FA0098A04201D16E
:103A60000020F8BD51EC100BFCF71EFE30600098F2
:103A700028600120F8BD7047704700E0401C0178C5
:103A80002029FBD00929F9D0704700002DE9F04129
:103A9000044600211848FEF79FFA1848FFF766FB16
:103AA0001748FFF763FB154DD4F8500C296888625E
:103AB0002968B4F8100CC862114FB4F8100CE86013
:103AC0003868002686623968D4F8180CC862D4F8C1
:103AD000180CF8602868466238684662012128465A
:103AE000FFF7D8FB01213846FFF7D4FB2868466270
:103AF00038684662BDE8F081285400209C540020BC
:103B0000E8540020284A002122F8101002F5C8725B
:103B100022F8101002F5C87242F8201002F548721F
:103B200022F8101002F5C87222F8101002F5C872BF
:103B300022F8101002F5C87222F8101002F5C872AF
:103B400022F8101002F5C87222F8101002F5C8729F
:103B500022F8101002F5C87222F8101002F5C8728F
:103B600042F8201002F5487242F8201002F548721F
:103B700042F8201002F5487222F8101002F5C872BF
:103B800022F8101002F5C87222F8101002F5C8725F
:103B900022F8101002F5C87222F8101002F5C8724F
:103BA00022F8101070470000102D00202DE9F04180
:103BB00005462DED048BB0EE408A18EE100A4FF04A
:103BC0007E51F7EE008A884201DAB0EE688A9FEDF6
:103BD0002A0A9FED2A9A4FF4803768EE000A0024E3
:103BE0007E1E89EE200A10EE100A884209DD01F0DF
:103BF000C1FEBCEEC00A10EE104A641EBC4200D3E7
:103C0000344600EE104AB8EE400A70EE280A89EEFB
:103C1000200AC0EE080A30EEE80A02F021F8BCEEF5
:103C2000C00A10EE100AB84203D3B44201D2641C99
:103C3000E7E7F8B1B84200D3304600EE104A80B250
:103C4000C5F8504CB8EE400AA5F8100C05F54065D3
:103C500070EE280A00EE100AB8EE400A30EE280A8C
:103C600020EE800AC9EE000AC5ED050ABDEC048B02
:103C7000BDE8F0810120E0E700008047E81F224D09
:103C80002DE9F041B5EEC00A2DED048B0746F1EEAB
:103C900010FAD1F8245CD1F8280C0E4617D9B5B12A
:103CA000A8B100EE100ADFED3E0A9FED3E9AB8EE95
:103CB000400A0024B0EE498ADFF8EC8020EE200AAA
:103CC00000EE905AF8EE600AC0EE208A10E04FF045
:103CD000FF30BDEC048BBDE8F081B0EE480A02F085
:103CE0000DF808EB840038EE288A80ED000A641C89
:103CF000AC42F2D3B88AF6EE000A00EE100A9FED4D
:103D00002B1AB8EE400A20EE208A00EE100AD7EDFA
:103D1000030AB8EE400A60EE800A80EE810AF7EEF0
:103D2000000A78EE600AB4EEE00AF1EE10FA01DD66
:103D3000B0EE600AB5EEC00AF1EE10FA01D2B0EEB4
:103D4000490A19492A46084603F0EEFB16492A4655
:103D5000B0EE480A084603F071F900241CE008EBB5
:103D6000840090ED000A01F07BFFB88AF0EE400A73
:103D700000EE100AB8EE400A01F08EFEF0EE400AA6
:103D8000B0EE490A01F064FEBCEEC00A06EB440145
:103D9000641C10EE100A0881AC42E0D3002098E7C2
:103DA000DB0FC94000000000940000203333D340F3
:103DB00010B591ED000A002380ED000A40F8043FA1
:103DC0009FED1D0A00F6FC3240F2E73482ED020A54
:103DD00082ED030AA0F80C4CD1ED060AA924C2ED2D
:103DE000050AC0F8144CD1ED040AC2ED070AD1ED62
:103DF000000A4FF48061C2ED080AC0F8201C0121BE
:103E0000C0F8241C82ED0B0A82ED0C0A82ED0D0A2B
:103E100082ED0E0A82ED0F0A82ED100AA0F8403CF6
:103E2000A0F8423CA0F8443CA0F8463CA0F8483C2E
:103E3000C0F84C3C10BD0000000000009FED100ACF
:103E4000DFED100A40F6FF7180EC020A80ED020AF5
:103E50009FED0D0A80ED030A9FED0C0A80ED040A28
:103E600081829FED0B0A4FF4807180ED060A9FED71
:103E7000090AC16180ED080AC821818470470000E9
:103E80000000C84200409C469A99993F002474491A
:103E900000401C460000000010B50B48FFF766F913
:103EA0000A48FFF763F90A48FDF792FE0948FDF753
:103EB0008FFE00210848FEF78FF8084800210170A6
:103EC0004170817010BD00009C540020E854002017
:103ED00090520020FC5200202854002000000020B6
:103EE00010B590ED000AB5EEC00AF1EE10FA0DD94A
:103EF000D0ED011AF4EEC01AF1EE10FA06D3D0EDAF
:103F0000020AF5EEC00AF1EE10FA01D816A026E07A
:103F100090ED031AB5EEC01AF1EE10FA04D911EEC5
:103F2000100A1949884207DD1AA09FED180B53ECBF
:103F3000102B01F0C3FB14E031EEC00A80EE201A12
:103F4000BCEEC10A10EE101A491C07D0C82903D9CB
:103F5000C82219A001F0B2FB012010BD26A001F07B
:103F6000ADFB002010BD000045525220696E766105
:103F70006C6964206672657175656E637920726123
:103F80006E67650D0A000000000040400000000060
:103F90000000084045525220616D706C6974756470
:103FA00065206D75737420626520302E2E252E32AB
:103FB00066205670700D0A005741524E2073776587
:103FC00065702068617320256C7520706F696E7450
:103FD000732C206669726D776172652077696C6CED
:103FE000206B65657020666972737420257520707A
:103FF0006F696E74730D0A0045525220656D7074BE
:10400000792073776565700D0A0000002DE9F0478F
:1040100004460078464D474E86B007287ED2DFE83A
:1040200000F03204060B3545430043A078E006B0AB
:10403000BDE8F04701F0C8B83D48FFF7FFFE3C4936
:1040400001F12800FFF7B4FEAA46E868FCF700FB80
:1040500080468946DAF80800FCF7FAFA06460F4669
:10406000DAF80400FCF7F4FA04460D46DAF800002A
:10407000FCF7EEFA8DE8F00341EC100B30A053ECA6
:10408000102B01F01BFB06B0BDE8F0870120F0709B
:10409000FFF702FF264828300021426806B031A011
:1040A000BDE8F04701F00ABB334839E0201DFFF7B7
:1040B00017FF0028E7D02822211D1D48FCF7FAF839
:1040C0001B4901F12800FFF773FE0020F070AA469B
:1040D000E868FCF7BDFA80468946DAF80800FCF784
:1040E000B7FA06460F46DAF80400FCF7B1FA0446C0
:1040F0000D46DAF80000FCF7ABFA8DE8F00341EC6E
:10410000100B1EA053EC102B01F0D8FA08490848F8
:10411000283100F013F90128B5D000E005E01FA018
:1041200006B0BDE8F04701F0C9BA1EA0F8E70000EC
:104130009420002000000020504F4E470D0A000040
:104140004F4B2044454641554C5420252E33662084
:10415000252E336620252E336620252E33660D0A44
:104160000000000053544F5050454420256C752FDB
:10417000256C750D0A0000004C8600084F4B20533B
:104180005745455020252E336620252E33662025A1
:104190002E336620252E33660D0A0000444F4E450F
:1041A0000D0A000045525220756E6B6E6F776E20BF
:1041B000636F6D6D616E642C2073656E642048457D
:1041C0004C500D0A0000000070B596B00C46FFF789
:1041D00054FC054600208DF800000BAE28222E4925
:1041E00001A8FCF767F82C2269463046FCF762F814
:1041F0002C220BA92046FCF75DF82878002843D034
:1042000026A12846FCF713FF08B1012005E025A1EF
:104210002846FCF70CFF10B10220207034E023A1E7
:104220002846FCF704FF08B10320F6E721A1284641
:10423000FCF7FDFE08B10420EFE720A12846FCF7BB
:10424000F6FE30B3282214496846FCF733F86D1D9A
:1042500069460AA80A95FFF7F5FBC0B10AA801A9AB
:10426000FFF7F0FB98B10AA802A9FFF7EBFB70B1CA
:104270000AA803A9FFF7E6FB48B105202070282211
:104280006946201DFCF716F816B0012070BD062007
:10429000C3E70720C1E700009420002050494E47A3
:1042A0000000000048454C500000000044454641D5
:1042B000554C540053544F5000000000535745458F
:1042C000500000002DE9F8434FF000090C000646AD
:1042D0008DF800900AD0DFF85880164F351900236A
:1042E000012269461448FFF7C7F810B10020BDE865
:1042F000F8839DF800100D29F1D00A2909D0B8885B
:104300005F2806D208F80010401C80B2B8805F28F1
:10431000E5D3BA880649304608F80290621EFBF7DA
:10432000EDFF05F8019CA7F804900120DFE70000ED
:104330003400002000000020345500202DE9F04F0B
:104340002DED0C8BBFB00D46804690ED020AB5EE08
:10435000C00AF1EE10FA06D998EC020AF4EEC00A8F
:10436000F1EE10FA05D200203FB0BDEC0C8BBDE899
:10437000F08FDFEDFECAFE480121C0ED00CAC0ED9E
:1043800001CAC0ED02CAC16098ED008AD8ED04AA46
:104390009FEDF8BA98ED010AD8ED020A30EE480A0E
:1043A00080EE201ABCEEC10A10EE100A401CC8288C
:1043B00000D9C82080B2A8F82400039068600020CB
:1043C0004FF6FF71ADF87010ADF87410ADF87800CD
:1043D000ADF87200ADF87600ADF87A000446F7EE5D
:1043E00000BA9FEDE5DA9FEDE5CA05F540672DE3DC
:1043F00068EE0B0A80EEAA0A01F0F2FABCEEC00ADF
:1044000010EE100A5FEA000901D14FF00109CAEE6F
:10441000880A00EE109AB8EE400A20EE800A01F0F9
:104420001FFCBCEEC00A4FF4806010EE106A86429A
:1044300001D9064602E0022E00D2022600EE106AE2
:10444000C5F8289CC5F8246CB8EE400A68EE000A4E
:1044500000EE109AB8EE400AC0EE808AF4EEEA8AC6
:10446000F1EE10FA01DDF0EE6A8A18EE900AB0F172
:104470007E5F01DAF0EE6B8A8DEE280A30EE6B0A71
:1044800001F0EEFBBCEEC00A10EE100A00B90120EC
:1044900000EE100AC5F8180CB8EE400A70EE2B0AB0
:1044A0008DEE200A00EE909AF8EE600A87ED070A7A
:1044B00060EE200A00EE106AB8EE401A80EE810A23
:1044C000F0EE000A87ED080A85ED000A20EE200ACA
:1044D000DFEDAB0A20EE200AF0EE4C0AFCF772FE8C
:1044E000A84941F8240095ED000A29464046FFF707
:1044F000C7FB18B12046FFF705FBA1E295ED000AC6
:10450000F3EE000A284620EE200AFFF74FFB28466C
:10451000FFF7BCFA00200090014605F108029A4816
:10452000D5F8243CFDF7DAFC9848FEF7E9FD95ED57
:10453000000AF2EE080A80EE801A21EE0C0A01F061
:1045400019FABCEEC00A10EE100A022800D20220AE
:10455000FDF7A4FE002002900090019098ED070A5C
:1045600097ED051A4FF6FF7BF8EE400ADA4606464D
:1045700080EE810A20EE0C0A01F0FCF9BCEEC00AC4
:1045800010EE100A1430052800D205203B9005F6E5
:1045900008003A904FF0000905F60820CDF8DC90AD
:1045A000399073490020083908704870887078493C
:1045B00009684862D8F81C2076483A99FDF790FAC5
:1045C0000590D8F81C2074483999FDF789FA0146FE
:1045D0000020049005980843389030D16C48FEF7CD
:1045E0008FFD3B983D90FDF743FF3C9020E060211C
:1045F00004A8FFF767FE50B104A8FFF73EFA67A1D1
:10460000FCF715FD18B15A4901200839C8705848FF
:104610000838C07818B1FFF73FFC02200EE0FDF724
:1046200027FF3C99411A3D98814201D3002005E0C3
:104630004F48083880780028D9D001200490544889
:10464000FEF794FD5348FDF7C3FA5348FDF7C0FA4F
:104650000498022802D0389848B182E0FFF71CFC89
:10466000214650A0039A01F029F801207CE6049825
:10467000012876D1284603F047F81FA897ED030AD2
:1046800000EB860080ED000A394890ED000A22A870
:1046900000EB860080ED000A3798E0B920EE0C0AA6
:1046A000444910EE100A884202DD47F6FF700DE023
:1046B00010EE100AB0F1474F01D93F4806E001F073
:1046C000CFFABDEEC00A10EE100A00B23B4921F845
:1046D00014000120379025A897ED0B0A00EB860007
:1046E00080ED000A28A897ED0C0A00EB860080ED0B
:1046F000000A2BA897ED0D0A00EB860080ED000A5A
:104700002EA897ED0E0A00EB860080ED000A31A876
:1047100097ED0F0A00EB860080ED000A34A897EDB4
:10472000100A00EB860080ED000AB5F8440C5845ED
:1047300000D28346B5F8460C0299884200D902900F
:10474000B5F8480C504500D28246B5F84A0C00999D
:10475000884200D90090B5F84C0C01990843761CAA
:10476000019009F1010003282DD229E0000000008A
:104770000800002000008044E81F224D00007A4419
:10478000DB0F49403030002028540020E85400203E
:104790009C54002090520020FC52002053544F5053
:1047A0000000000053544F505045442025752F25DC
:1047B000750D0A0000FEFF460080FFFFA02E0020BE
:1047C0000120FDF76BFD09F10109B9F1030FFFF4B9
:1047D000E8AEFE48FEF7CAFCFD48FEF7C7FC002124
:1047E000FC48FDF7F9FB5EB19DED1F1A9DED22AA75
:1047F0000120B0EE410AF0EE4A9A1FA922AA28E051
:104800002046FFF77FF911E101EB8003D3ED001A99
:10481000F4EEC11AF1EE10FA01D2B0EE611AF4EE24
:10482000C01AF1EE10FA01DDB0EE610A02EB80036E
:1048300093ED009AB4EECA9AF1EE10FA01D2B0EEFE
:1048400049AAB4EEE99AF1EE10FA01DDF0EE499AC8
:10485000401CB042D8D311EE101ADF48F0EE6C8A3B
:1048600081420DDD10EE101A814209DDC0EE010A11
:10487000B0EE600A01F034F9F3EE040A60EE208A2B
:1048800031461FA8FFF7A4F8B5EEC00AF1EE10FA02
:1048900001D8002011E010EE100AD049884201DB57
:1048A00088130AE0DFEDCE0A20EE200A01F0D8F9E5
:1048B000BCEEC00A10EE100A80B2CA4921F81400FA
:1048C000314625A8FFF784F8F0EE4C0AFCF75EFCB1
:1048D000C54921F81400314628A8FFF779F8F0EE11
:1048E0004C0AFCF753FCC14921F8140031462BA8AF
:1048F000FFF76EF8F0EE4C0AFCF748FCBC4921F8D3
:10490000140031462EA8FFF763F8F0EE4C0AFCF7CE
:104910003DFCB84921F81400314631A8FFF758F89A
:10492000F0EE4C0AFCF732FCB34921F81400314692
:1049300034A8FFF74DF8F0EE4C0AFCF727FCAF491E
:10494000F0EE4C0A21F8140001F5C871019821F825
:10495000140001F5C87020F8146097ED080AFCF700
:1049600031FCA749F0EE4C0A41F8240097ED050A06
:10497000FCF728FCA349F0EE4C0A41F8240097ED1F
:10498000070AFCF71FFCA049F0EE4C0AB0EE680ADB
:1049900041F82400FCF7FAFB39EECA0A9B49F0EE15
:1049A0004C0A21F81400B0EEC00AFCF7EFFB98495E
:1049B000524621F8140001F5C87121F814B001F530
:1049C000C871029821F8140001F5C87121F814A0EB
:1049D00001F5C871009821F81400DDE90010BDF858
:1049E00070C0029BDC4501D9ADF870B0BDF87260B3
:1049F0009E4201D2ADF87230BDF87430934201D9B5
:104A0000ADF874A0BDF876208A4201D2ADF87610D8
:104A1000C10704D0BDF87810491CADF878108007A4
:104A200004D5BDF87A00401CADF87A00386AFBF76F
:104A30000FFECDE90001611C76A0039A00F03EFE56
:104A400098ED020A641CA4B230EE088A03988442EE
:104A5000FFF4CEAC0246B0EE4C0A744974A000F0EC
:104A60004BFC75A15F4D78A0039E00F027FE00244B
:104A70009FED778A18E014B176A000F01FFE35F89C
:104A8000140000EE900AF8EE600A60EE880A10EE5C
:104A9000900AFBF7DDFD41EC110B6FA053EC112BDD
:104AA00000F00CFE641CA4B2B442E4D36BA000F08E
:104AB00005FE6BA16E4E64A0039D00F0FFFD002477
:104AC00018E014B163A000F0F9FD36F9140000EE0F
:104AD000900AB8EEE01AC1EE0C0A10EE900AFBF74D
:104AE000B7FD41EC110B5CA053EC112B00F0E6FD7F
:104AF000641CA4B2AC42E4D358A000F0DFFDB0EED9
:104B00004C0A3F495BA0039A00F0F6FBB0EE4C0A5A
:104B10003C495CA0039A00F0EFFBB0EE4C0A3A4926
:104B20005DA0039A00F0E8FBB0EE4C0A37495FA0A5
:104B3000039A00F0A7FBB0EE4C0A354962A0039A35
:104B400000F0A0FB664967A0039A00F00FFC6949DA
:104B500069A0039A00F00AFC6B496CA0039A00F06C
:104B600005FC6E496EA0039A00F000FCB0EE4C0A02
:104B70001D496FA0039A00F085FBB0EE4C0A1B495B
:104B80006EA0039A00F07EFBB0EE4C0A18496FA0AD
:104B9000039A00F077FBB0EE4C0A16496EA0039A18
:104BA00000F070FB6F4970A0039A00F0DFFB7149C1
:104BB00071A0039A00F0DAFBB0EE4C0A0E4973A024
:104BC000039A00F05FFBB0EE4C0AE5E09C54002035
:104BD000E8540020285400205F708930B9FCFF3F62
:104BE00000000047102D002050330020E03400204A
:104BF000703600200038002090390020203B002033
:104C0000D03F0020F0420020104600203049002014
:104C1000C04A002050524F47524553532025752F0C
:104C2000257520252E33660D0A0000003030002047
:104C30006F6D6567610000004D61676E6974756432
:104C4000655F64617461000025733D5B00000000D6
:104C5000000000382C000000256600005D0D0A00F1
:104C600050686173655F646174615F7261640000C4
:104C7000A02E002041637475616C5F667265715F80
:104C8000687A00004164635F73616D706C655F7288
:104C90006174655F687A00004461635F73616D7081
:104CA0006C655F726174655F687A00004D61676E64
:104CB00069747564655F7265706561745F73706156
:104CC0006E5F64620000000050686173655F72652A
:104CD000706561745F7370616E5F72616400000083
:104CE000504C0020496E7075745F6D696E5F636F24
:104CF00064650000E04D0020496E7075745F6D6161
:104D0000785F636F64650000704F00204F757470AA
:104D100075745F6D696E5F636F646500005100209C
:104D20004F75747075745F6D61785F636F64650053
:104D3000496E7075745F726D735F76004F75747035
:104D400075745F726D735F7600000000496E707558
:104D5000745F64635F7600004F75747075745F6490
:104D6000635F7600B03C0020436C69705F666C61E5
:104D700067730000403E002056616C69645F6361A8
:104D800070747572655F636F756E7400496E7075CF
:104D9000745F70705F7600000C490DA0039A00F0FC
:104DA00071FABDF876000090BDF87430BDF872203D
:104DB000BDF8701009A000F081FCBDF87A20BDF8A4
:104DC00078100EA000F07AFCFFF7CDBA203B00204F
:104DD0004F75747075745F70705F76004164635FC7
:104DE000636F64655F72616E67653D5B25752C2539
:104DF000752C25752C25755D0D0A0000436C6970B6
:104E00005F706F696E745F636F756E743D5B25755F
:104E10002C25755D0D0A0000FDF730BB10B594B070
:104E200038216846FBF75FFA14210EA8FBF75BFAFE
:104E30000020FDF7B5FB0120009000040190022046
:104E40000324CDE907045521CDE90A100C900D90FB
:104E500009946846FDF7A8FE08B172B6FEE70F2078
:104E6000CDE90E04002010901190129004210EA89C
:104E7000FDF74AFD002801D072B6FEE714B010BD60
:104E80000248016841F470010160704788ED00E05C
:104E90002DE9F0430268264C264D274E274B4FF054
:104EA0008049A04207D0484505D0A84203D0B0426F
:104EB00001D0984203D122F070074A683A43204F4C
:104EC000DFF880C0DFF88080A0420DD048450BD0CD
:104ED000A84209D0B04207D0984205D0B84203D0CA
:104EE000604501D0404503D122F44075CA682A4389
:104EF0004D6922F080022A4302608A68C2620A6811
:104F00008262A04207D0984205D0B84203D06045E3
:104F100001D0404501D10969016301214161016965
:104F2000C90703D0016921F001010161BDE8F083E7
:104F3000002C014000040040000800400034014003
:104F400000400140004401400048014010B5846821
:104F500042EA032224F47F440A432243826010BDC4
:104F60008268034B1A400A4342F007018160704790
:104F70008FFFCFFF10B5046A036A23F001030362B9
:104F8000836923F0F00343EA021324F00A020A4380
:104F90008361026210BD10B5036A046A24F0100434
:104FA0000462846923F0A00324F4704444EA0232CA
:104FB00043EA01118261016210BD000030B5416E0B
:104FC000B9B1026891689268C1F342610B4C520F0B
:104FD000A35CDD0004F108039A5CB5FBF2F2A0F8D3
:104FE0006A20625C595CD200B2FBF1F1A0F8681053
:104FF00030BD0121A0F86A10F8E70000C079000870
:1050000090F82810090706D501684A68836B22F4D6
:1050100000421A434A6090F82810C90706D0016878
:105020004A68C36A22F400321A434A6090F8281092
:10503000890706D501684A68036B22F480321A4357
:105040004A6090F82810490706D501684A68436B02
:1050500022F480221A434A6090F82810C90606D527
:1050600001688A68C36B22F480521A438A6090F800
:105070002810890606D501688A68036C22F400525C
:105080001A438A6090F82810490611D501684A68C9
:10509000436C22F480121A434A60416CB1F5801FC0
:1050A00006D101684A68836C22F4C0021A434A6040
:1050B00090F82810090606D501684A68C06C22F4E9
:1050C000002202434A6070472DE9F8430025044658
:1050D000C0F89050FDF7CCF98046206800684FF08A
:1050E000200600076FF07E4713D5434600223104A7
:1050F0002046009700F098FA58B1206850E8001F49
:1051000021F0800140E80012002AF6D1C4F888603E
:1051100021E020680068400722D5434600224FF472
:1051200080012046009700F07FFAC8B1206850E85F
:10513000001F21F4907140E80012002AF6D1206887
:10514000083050E8001F21F0010140E80012002A59
:10515000F5D1C4F88C6084F884500320BDE8F8834E
:10516000C4F88860C4F88C6044F86C5F656025768C
:105170000020F3E710B5016851E8002F22F4907287
:1051800041E80023002BF6D10E4B0168083151E8AD
:10519000002F1A4041E80024002CF6D1C16E0129ED
:1051A00008D1016851E8002F22F0100241E80023E5
:1051B000002BF6D12021C0F88C100021C166416778
:1051C00010BD0000FEFFFFEF10B50BA000F076FA57
:1051D00010A000F073FA12A000F070FA1FA000F007
:1051E0006DFA21A000F06AFA22A000F067FABDE88B
:1051F0001040234800F062BA5245414459205354AC
:105200004D3332473433315F53574545505F563144
:105210000D0A0000436F6D6D616E64733A0D0A00F4
:1052200020205357454550203C73746172745F6869
:105230007A3E203C73746F705F687A3E203C7374D2
:1052400065705F687A3E203C616D706C697475644E
:10525000655F7670703E0D0A0000000020205354F8
:105260004F500D0A00000000202044454641554C97
:10527000540D0A00202050494E470D0A000000003E
:105280000886000870B50E462DED028B0146B0EE83
:10529000408A154613A000F011FA002418E014B15A
:1052A00012A000F00BFA36F8140000EE900AB8EEE7
:1052B000601AC1EE080A10EE900AFBF7C9F941EC3A
:1052C000110B0BA053EC112B00F0F8F9641CA4B2E5
:1052D000AC42E4D3BDEC028B06A0BDE8704000F008
:1052E000EDB9000025733D5B000000002C000000BC
:1052F000256600005D0D0A0070B50E462DED028B8F
:105300000146B0EE408A154613A000F0D7F90024FC
:1053100018E014B112A000F0D1F956F8240000EE04
:10532000900AB8EE601AC1EE080A10EE900AFBF778
:105330008FF941EC110B0BA053EC112B00F0BEF9CF
:10534000641CA4B2AC42E4D3BDEC028B06A0BDE861
:10535000704000F0B3B9000025733D5B0000000011
:105360002C000000256600005D0D0A0070B50E4699
:10537000014615460BA000F0A1F900240AE014B183
:105380000AA000F09BF936F8141009A000F096F975
:10539000641CA4B2AC42F2D3BDE8704005A000F09A
:1053A0008DB9000025733D5B000000002C0000005B
:1053B000257500005D0D0A002DE9F04104460068E6
:1053C0002269A168E66911436269002532431143ED
:1053D0008A4B02688A4E32400A4302602068416864
:1053E000E26821F44051114341602168A06999426B
:1053F00001D0226A10438A68824E324002438A609A
:105400002068C16A626A21F00F011143C1627E49BE
:1054100022687E488A420DD1D0F8880010F003003F
:1054200006D0012855D0022842D003283FD152E0AF
:1054300001203DE076498A420BD1D0F8880010F077
:105440000C0035D0042833D0082840D00C282ED1A9
:1054500041E070498A420BD1D0F8880010F030004A
:1054600026D0102835D0202831D030281FD132E066
:1054700069498A420BD1D0F8880010F0C00017D0DB
:10548000402826D0802822D0C02810D123E09A427C
:105490000DD1D0F8880010F4406009D0B0F5806FCD
:1054A00017D0B0F5006F12D0B0F5406F13D01020B8
:1054B0005A495B4E00274FF4004C9A423BD160B1F1
:1054C000022813D004280BD0082872D10DE0022046
:1054D000EEE70420ECE70820EAE7FDF709FB01E02E
:1054E000FDF72AFB010001D17CE06146606A36F8D5
:1054F00010206668B1FBF2F006EB4603834270D8D9
:10550000B0EB063F6DD8002308461946FAF780FE37
:10551000090241EA1061020270081018794132460E
:105520000023FAF775FE3F4AA0F54071914258D822
:105530002168C86056E0E2694FF6EF7862452CD1E9
:1055400009284ED2DFE800F00508114D0D4D4D4DF4
:105550001000FDF7CDFA01E0FDF7DCFA010004D1FF
:1055600040E0FDF7E9FAF9E76146606A36F81000B5
:10557000B1FBF0F04100606801EB5001B1FBF0F0CD
:10558000A0F1100141452CD84FF6F0710140C0F355
:10559000420001432068C16024E0092821D2DFE8ED
:1055A00000F0050912200E2020201100FDF7A0FABE
:1055B00002E016E0FDF7AEFA010004D112E0FDF7BB
:1055C000BBFAF9E76146606A36F81000B1FBF0F10A
:1055D000606801EB5001B1FBF0F0A0F11001414512
:1055E0000AD901250120A4F86A0024F8680F28468A
:1055F000E7602761BDE8F08180B299E70080004054
:10560000F369FFCFFFF4FF110038014000100240A2
:105610000044004000480040004C00400024F400DA
:10562000A8790008FFFC0F002DE9F0471F469046BF
:105630000D4604464FF00009089E32E0701C30D041
:10564000FCF716FFC01BB04218D8BEB12068016835
:10565000490726D5802D24D0402D22D0C169C943C9
:1056600009070DD4082505622046FFF783FDC4F81D
:10567000905084F884900120BDE8F0870320FBE778
:10568000C069C04300050CD421684FF40060086273
:105690002046FFF76FFD2020C4F8900084F8849026
:1056A000ECE72068C06935EA000004D000204045DE
:1056B000C4D00020E0E70120F9E7FEE70FB4054B76
:1056C00010B503A9044A029800F0BCFD10BC5DF8B7
:1056D00014FB0000417500082C0000204100080266
:1056E00018BF04200A0E18BF40F001004FF07F429F
:1056F00032EA010108BF40F00200012808BF05207E
:1057000070470907090E002804DB00F1E02080F84B
:105710000014704700F00F0000F1E02080F8141D25
:105720007047000010EE100A10B510EE901A4FF0FE
:10573000684202EB40032DED028BB3F1654F3CBF95
:1057400002EB4102B2F1654F7CD200BFC0F3C753F8
:10575000C1F3C7529A1A1B2A09DD10F0004F14BF7B
:105760009FED6E0A9FED6E0ABDEC028B10BD12F12B
:105770001A0F1BDA11F0004F09D010F0004F0CBFC8
:105780009FED680A9FED680ABDEC028B10BD80EEAC
:10579000208A18EE100AFFF7A1FF042808BF00F0C6
:1057A000BFFBB0EE480ABDEC028B10BD4200B2EB6D
:1057B000410F37D910F0004F19BFDFED5C1A9FED94
:1057C0005C1ADFED5C1A9FED5C1AB0EE602A0A46A7
:1057D000F1EE400A80F00041B0EE420A10460A1A8B
:1057E0005200B2F1807F34D2484010F0004FDFED1C
:1057F000532A9FED533A1DBFBEEE002A71EEE21A06
:1058000031EE431AB6EE002A04BF71EEA21A31EE51
:10581000031AF0EE402A42EE602A40EE020A82EEBF
:10582000A02A18E011F0004F04BF9FED461AF0EED9
:10583000411AD4D010F0004F1CBFDFED431A9FED8A
:10584000431A00E026E004BFDFED411A9FED411A44
:10585000C5E780EE202A22EE020ADFED3F0ADFEDE7
:105860003F2ABDEC028B40EE202ADFED3D0A40EEE0
:10587000220ADFED3C2A40EE202ADFED3B0A40EE13
:10588000220A22EE000A00EE201A31EE020A30EE61
:10589000210A10BD4FF07F42B2EB400F28BFB2EBA0
:1058A000410F05D2BDEC028BBDE8104000F02DBBCE
:1058B00040EA01035B0008BF41F0FF410BD0B2EBAF
:1058C000400F08BFB2EB410F08D120F0804000EE3E
:1058D000100A21F0804100EE901A37E7B2EB400F3A
:1058E00012BF5FEA410240F0FF4001F000413FF487
:1058F0002DAF4A0092EA40033FF528AF002AACBF23
:105900009FED1A1A9FED1A1A20EE010A60EE810A25
:1059100010EE100A10EE901A18E70000DB0FC9BF56
:10592000DB0FC93FDB0F4940DB0F49C00000C9BF97
:1059300022AAFDB90000C93F22AAFD390060ED3E50
:10594000C30ACE3700000000000049C022AA7DBA79
:105950000000494022AA7D3A2DAD65BD8FB8D53DE6
:105960000FB511BE61C84C3EA8AAAABE0000804F68
:105970000000802F10EE100AC0F3C7517F3917299D
:10598000A8BF7047DFED140A002970EE200A0CDA78
:10599000F5EEC00AF1EE10FA1ADD0028C8BF4FF08C
:1059A0007E50B8BF4FF0004012E00C4A22FA01F2DC
:1059B000104208BF7047F5EEC00AF1EE10FA07DD9D
:1059C000002804DD4FF4000323FA01F1084490435A
:1059D00000EE100A70470000CAF24971FFFF7F0015
:1059E00010EE100AC0F3C7517F391729A8BF7047BE
:1059F000DFED140A002970EE200A0DDAF5EEC00A78
:105A0000F1EE10FA1ADD0028A8BF002016DAB0F176
:105A1000004F18BF0C4811E00C4ACA40104208BFA2
:105A20007047F5EEC00AF1EE10FA07DD002804DA3F
:105A30004FF4000323FA01F10844904300EE100AEA
:105A400070470000CAF24971000080BFFFFF7F006D
:105A500010B52DED028BB0EE608AF0EE408A18EEA4
:105A6000101A18EE900AFAF779FF00F07040B0F1C2
:105A7000005F0CD018EE100A20F00040C0F1FF408B
:105A8000C00F02BFB0EE480ABDEC028B10BDB0EEF5
:105A9000680ABDEC028B10BD10B52DED028BB0EE87
:105AA000608AF0EE408A18EE101A18EE900AFAF7A3
:105AB00055FF00F07040B0F1004F0CD018EE100A06
:105AC00020F00040C0F1FF40C00F02BFB0EE480A16
:105AD000BDEC028B10BDB0EE680ABDEC028B10BDB0
